:100000000C943A010C9459010C9459010C94590127
:100010000C9459010C9459010C9459010C945901F8
:100020000C9459010C9459010C9459010C945901E8
:100030000C9459010C9459010C9459010C945901D8
:100040000C9459010C9459010C9459010C945901C8
:100050000C9459010C9459010C9459010C948E067E
:100060000C9459010C9459010C9459010C945901A8
:100070000C9459010C9459010C9459010C94590198
:100080000C9459010C9459010C9459010C94590188
:100090000C9459010C945901000000000000005F0D
:1000A00000000003000300143E143E14242A7F2A9B
:1000B000124333086661364955225000050300009B
:1000C000001C2241000041221C0014083E081408B4
:1000D000083E0808005030000008080808080060C2
:1000E00060000020100804023E5149453E00040211
:1000F0007F00426151494622414949361814127F16
:100100001027454545393E494949320101710907E2
:100110003649494936264949493E003636000000ED
:10012000563600000814224100141414141400411F
:1001300022140802015109063E4159555E7E090903
:10014000097E7F494949363E414141227F41414133
:100150003E7F494949417F090909013E4141493AE8
:100160007F0808087F00417F4100304040403F7FCA
:10017000081422417F404040407F020C027F7F02F2
:1001800004087F3E4141413E7F090909061E2121A5
:10019000215E7F09090976264949493201017F011B
:1001A000013F4040403F1F2040201F7F2010207F04
:1001B00041221C224107087008076151494543004C
:1001C0007F41000002040810200000417F0004026B
:1001D0000102044040404040000102040020545409
:1001E00054787F4444443838444444443844444474
:1001F0007F385454541804047E0505085454543C64
:100200007F0804047800447D40002040443D007F86
:100210001028440000417F40007C047804787C086A
:1002200004047838444444387C1414140808141422
:10023000147C007C080404485454542004043F44B3
:10024000443C4040207C1C2040201C3C4030403C32
:1002500044281028440C5050503C4464544C4400F2
:100260000836414100007F0000414136080002018C
:100270000204020011241FBECFEFD0E2DEBFCDBFCB
:1002800014E0A0E0B1E0EEE6F5E300E00BBF02C051
:1002900007900D92AC38B107D9F715E0ACE8B4E09F
:1002A00001C01D92AB3EB107E1F70E94B90A0C9460
:1002B000B51A0C94000093E89093B00091E09093ED
:1002C000B1008093B30008959093B4048093B30475
:1002D00026E330E020930040009779F480EF90E02F
:1002E0009093B0048093AF0480E491E09093B204C3
:1002F0008093B10488E490E034C08130910579F4B2
:1003000080E491E09093B0048093AF0480EF90E09C
:100310009093B2048093B10488EE90E022C08230C2
:10032000910579F480EF90E09093B0048093AF044E
:1003300080E491E09093B2048093B10488E890E067
:1003400010C0039781F480E491E09093B00480930F
:10035000AF0480EF90E09093B2048093B10488E200
:1003600090E0809300418AE290E08093004080E03A
:1003700090E090930041809300418091AF04909170
:10038000B004019790930041809300418BE290E08C
:100390008093004080E090E0909300418093004182
:1003A0008091B1049091B2040197909300418093A1
:1003B00000410895CF93873750F4883050F08D3343
:1003C00050F48F3150F4803150F0C2E009C086E71C
:1003D00002C088E004C0C0E003C0C1E001C0C3E0C7
:1003E00021EB30E020930040C0930041682F70E083
:1003F00080E090E00E9499139B01AC0160E070E006
:1004000080EF94E40E94BD120E94ED0F70E002C0E4
:1004100075956795CA95E2F760930041CF9108956D
:100420000F931F93CF93DF93CDB7DEB728970FB607
:10043000F894DEBF0FBECDBF29833A834B835C8324
:100440006D837E838F83988769817A812B813C813C
:100450004D815E818F819885EAE2F0E0E093004073
:10046000709300416093004130930041209300411C
:10047000EBE2F0E0E09300405093004140930041F4
:100480009093004180930041ECE2F0E0E093004063
:100490002F5F3F4F261B370B0196841B950B2817A8
:1004A000390790F4682F6770629FA001639F500D19
:1004B000112473E0969587957A95E1F7829FB001B4
:1004C000839F700D112411C0622F6770689FA00177
:1004D000699F500D112463E0369527956A95E1F7E1
:1004E000289FB001299F700D1124842F877081509F
:1004F00028F01093004100930041F9CFCA0123E096
:10050000969587952A95E1F7860F971F019708F131
:10051000109300410093004110930041009300416B
:10052000109300410093004110930041009300415B
:10053000109300410093004110930041009300414B
:10054000109300410093004110930041009300413B
:10055000DDCF28960FB6F894DEBF0FBECDBFDF917A
:10056000CF911F910F910895EF92FF920F931F93D8
:10057000CF93DF93CDB7DEB728970FB6F894DEBFE1
:100580000FBECDBF29833A834B835C836D837E830B
:100590008F83988789819A81EB80FC806D817E8131
:1005A000AF81B8852AE230E020930040909300416B
:1005B00080930041F0920041E09200412BE230E054
:1005C000209300407093004160930041B09300413C
:1005D000A09300412CE230E020930040E816F90699
:1005E000A0F0A8019B018A01A217B30760F04E5F3B
:1005F0005F4FF80100811181109300410093004189
:100600002F5F3F4FF0CF0196E9CF28960FB6F894B1
:10061000DEBF0FBECDBFDF91CF911F910F91FF9035
:10062000EF9008950F931F93CF93DF93CDB7DEB76D
:1006300028970FB6F894DEBF0FBECDBF1092B60458
:100640001092B5041092B8041092B7041A8219825D
:100650008091AF049091B0040197482F9C838B83C5
:100660001E821D828091B1049091B20401979887F7
:100670008F830091BB041091BC0420E03A815C811F
:1006800060E07E8198850E94100228960FB6F8944B
:10069000DEBF0FBECDBFDF91CF911F910F910895A7
:1006A00086E08093750080E8809374003F9A249AD6
:1006B0008FEC97E00197F1F700C0000047988FE3B7
:1006C0009CE90197F1F700C00000479A9FEF2DEEDB
:1006D00082E0915020408040E1F700C0000088E2B5
:1006E00090E08093004081E190E0809300409FEF94
:1006F00026E781E0915020408040E1F700C00000F3
:1007000021E030E08BEC90E08093004020930041AA
:1007100080EC90E08093004088E096E29093004166
:100720008093004120E130E081EC90E08093004034
:100730002093004185EC90E0809300408EE395E3A8
:10074000909300418093004125EB30E087EC90E0EE
:10075000809300402093004121E030E086EF90E05C
:10076000809300402093004180E090E0909300410E
:100770008093004125E530E08AE390E080930040DB
:100780002093004181E090E00E9464010E941203E6
:100790001092B6041092B5041092B8041092B704E7
:1007A0001092BC041092BB048FEF9FEF9093BA0499
:1007B0008093B90489E290E0809300409FE728E3AA
:1007C00081E0915020408040E1F700C0000020E02F
:1007D00030E085E390E08093004020930041EAE61A
:1007E000F0E08081806280832C9A0895CF92DF921E
:1007F000EF92FF920F931F93CF93DF93F091B50485
:10080000E091B6042091B7043091B8048A30E1F445
:100810001092B6041092B504285F3F4F3093B8048D
:100820002093B7048091B1049091B204281739073E
:1008300008F4A2C0DF91CF911F910F91FF90EF902C
:10084000DF90CF900C94120390EE980F9F3508F034
:1008500093C0B901695F7F4F992787FD9095809775
:10086000A5E0A89FA001A99F500D112448565F4FF5
:100870008BE290E080930040309300412093004150
:1008800070930041609300418F2F9E2F8C010C5F6D
:100890001F4FEAE2EE2EF12CFCE2CF2ED12C481BAA
:1008A000590B0817190750F1E0920040909300414E
:1008B000809300419093004180930041C09200409A
:1008C000FA01E80FF91FE491D901F1E06A177B07FB
:1008D00098F0CF2FCE2329F0C091B904D091BA045B
:1008E00004C0C091BB04D091BC04D0930041C0931C
:1008F00000411196FF0FEACF0196D3CF4AE250E0B4
:1009000040930040909300418093004190930041B8
:10091000809300418CE290E080930040621773075F
:1009200058F08091BB049091BC0490930041809357
:1009300000412F5F3F4FF2CF8091B5049091B604F4
:100940009C012A5F3F4F3093B6042093B5040B9669
:100950002091AF043091B0048217930768F0109291
:10096000B6041092B5048091B7049091B80408962B
:100970009093B8048093B704DF91CF911F910F91AA
:10098000FF90EF90DF90CF9008951F93CF93DF9368
:10099000EC0110E0FE01E10FF11D8081882321F0C0
:1009A0000E94F6031F5FF6CFDF91CF911F9108954C
:1009B0009093B6048093B5047093B8046093B70421
:1009C00008959093BA048093B9047093BC04609323
:1009D000BB0408951F93CF93DF93EC017093B6048B
:1009E0006093B5045093B8044093B70410E0FE013F
:1009F000E10FF11D8081882321F00E94F6031F5F23
:100A0000F6CFDF91CF911F910895E0919C04F09172
:100A10009D049F012F5F3F4F30939D0420939C04C2
:100A2000808308958A3034F090918D04992321F0C9
:100A300097E303C090E301C097E5890F0E94050585
:100A400081E080938C04089520918E0430918F046E
:100A500040E02817390720F04F5F281B390BF9CFEA
:100A600030938F0420938E0480918C04811102C0F6
:100A7000442319F0842F0C94120508958F929F92AD
:100A8000AF92BF92CF92DF92EF92FF920F931F939C
:100A9000CF93DF9300D0CDB7DEB7FE017196E19022
:100AA000F1908F0180E9C82E84E0D82EF701808173
:100AB000882309F4DBC0853231F09FEFE91AF90A87
:100AC0000E94F603F3CFF7012181203329F0F2E0F1
:100AD000EF0EF11CB12C07C0F7012281C70103966C
:100AE0007C01BB24B39480ED820F8A3078F4F70147
:100AF000A12C7F0180ED820F8A3048F49A2D990F46
:100B0000990FA90EAA0CA80E2191F3CFA12CD09277
:100B10009D04C0929C0410928C04233609F461C099
:100B20004CF4253209F46CC02835C1F1222309F4B4
:100B30009DC069C0233709F45DC01CF4243631F030
:100B400062C0253719F0283749F15DC0480192E0AD
:100B5000890E911CF8018081918190938F0480937C
:100B60008E04243661F497FF0AC09195819591090E
:100B700090938F0480938E048DE20E94050580E19E
:100B800097E20E94240588EE93E00E94240584E603
:100B900090E00E9424058AE090E01BC081E02835A7
:100BA00009F080E080938D044801F2E08F0E911CE3
:100BB000F8018081918190938F0480938E0480E06E
:100BC00090E10E94240580E091E00E94240580E1EC
:100BD00090E00E94240580918E040E9412058401F9
:100BE00012C04801F2E08F0E911CF80180810E9432
:100BF0000505F5CFF801208131810E5F1F4F05C03B
:100C000085E20E94050520E934E0E0919C04F09122
:100C10009D04108230939D0420939C04F901CF0120
:100C200001964081442329F01A141CF4AA94FC0173
:100C3000F6CF90939D0480939C041A146CF4BB200F
:100C400011F080E301C080E229833A830E94F60319
:100C5000AA943A812981F1CF5901F50181915F016F
:100C6000882309F423CF0E94F603F7CF0F900F904B
:100C7000DF91CF911F910F91FF90EF90DF90CF9078
:100C8000BF90AF909F908F9008950C94F6031F93A0
:100C9000182F8A3019F48DE00E9447068091C80011
:100CA00085FFFCCF1093CE00212F332727FD3095F1
:100CB000C9011F9108958091C80087FFFCCF8091E2
:100CC000CE0090E008951092CD0083E38093CC0095
:100CD00088E18093C90086E08093CA008EE091E0AD
:100CE0009093E8058093E7059093EA058093E905E2
:100CF00080E091E09093E6058093E5050895E1E6B4
:100D0000F0E080E880831082279A0E9463060E94A8
:100D100050030E945C070E94650808951F920F927D
:100D20000FB60F920BB60F9211249F92AF92BF9203
:100D3000CF92DF92EF92FF920F931F932F933F93E7
:100D40004F935F936F937F938F939F93AF93BF93D3
:100D5000CF93DF93EF93FF93BB248DE0C82ED12C6C
:100D600099249394AA24AA947EC0EC9CE001ED9C63
:100D7000D00DFC9CD00D1124C354DB4F2D813E813E
:100D80004F81588589819A81AB81BC8128173907A9
:100D90004A075B0708F452C090919E04E92FF0E0E7
:100DA000E35EFE4F8081B81608F048C08881882332
:100DB00009F044C0F894EC9CF001ED9CF00DFC9C13
:100DC000F00D1124E354FB4F158216821782108612
:100DD0009082E92FEF5FE0939E04F0E0E35EFE4F28
:100DE000B0827894EC9C8001ED9C100DFC9C100D61
:100DF000112403541B4FD8011996ED91FC911A97B9
:100E00001B968D919C911C970995F8019487838777
:100E1000F894EC9CF001ED9CF00DFC9CF00D11247D
:100E2000E354FB4F108280919E04E82FF0E0E35ED4
:100E3000FE4FA082815080939E047894EC9CF00138
:100E4000ED9CF00DFC9CF00D1124E354FB4F8581CB
:100E50009681A781B0850196A11DB11D85839683DA
:100E6000A783B087B394EB2CFF2480911C019927B2
:100E700087FD90958E159F050CF077CFFF91EF9130
:100E8000DF91CF91BF91AF919F918F917F916F91A2
:100E90005F914F913F912F911F910F91FF90EF9094
:100EA000DF90CF90BF90AF909F900F900BBE0F90B0
:100EB0000FBE0F901F90189583E884BD85B58360A1
:100EC00085BD81E080936E0016BC8FEF87BD0895CD
:100ED000882319F087BD279A089527980895EF92DF
:100EE000FF920F931F93CF93DF937C018901809131
:100EF0001C01C82FDD27C7FDD0952196CA30D1052A
:100F00001CF0CFEFDFEF2CC0CB01BA010E944B14D5
:100F100025E732E04AEF5EE30E94C31120E030E0B3
:100F200040E05FE30E9496110E94ED0F2DE030E05B
:100F3000C29FF001C39FF00DD29FF00D1124E35426
:100F4000FB4F618372838383948365837683878376
:100F500090871082F286E18614870387C0931C0174
:100F6000CE01DF91CF911F910F91FF90EF900895E7
:100F7000482FF8948CB185FD02C030E001C033E009
:100F800084FF02C081E038272091A404231B20FFA6
:100F900009C03093A4048091420581502270820FD1
:100FA000809342057894842F0895F89480914205A7
:100FB000909142059170909342057894859508959B
:100FC000AC01F8943091410586B12CB193B12F67F3
:100FD000806C28239F6B2923209523278091A304CD
:100FE000822380958093A3049091A2049223982752
:100FF0009093A2048223892390914105982790938E
:10100000410520913F05909141058923822B8093D2
:101010003F05809141058C7F19F48CE38093A104F6
:101020008091A10481508093A104882359F48AE01F
:101030008093A10490914005809141058C7F892B7C
:10104000809340057894CA010895F89490913F05E3
:10105000892390913F05982790933F0578940895B0
:10106000F89490914005892390914005982790939A
:101070004005789408959091410589230895F89446
:1010800090914105F89420913F0590958923822302
:1010900090913F05982790933F0578940895982F55
:1010A000F89480914005982380914005892780938A
:1010B00040057894F89480913F05892390913F05ED
:1010C000982790933F05789408958DB18F7C8DB9C2
:1010D0008EB180638EB96F98779A87B1837C87B918
:1010E00088B18C6388B926982E9A88EB97E042E005
:1010F00050E060E070E020E030E00E946F0780EE9A
:1011000097E04AE050E060E070E020E030E00E94CC
:101110006F07089540E050E06AE070E012C0F90106
:10112000E80FF91FEE0FFF1FED5BFA4F718360832D
:1011300001968930910599F74F5F5F4F493051050E
:1011400059F080E090E09A01E3E0220F331FEA9526
:10115000E1F7240F351FE3CF089589309105F0F4AE
:1011600069307105D8F4FC0123E0EE0FFF1F2A95CA
:10117000E1F7E80FF91FE60FF71FEE0FFF1FED5B1A
:10118000FA4F808191816AE070E00E94B916099758
:1011900029F0808191810196918380830895EF9257
:1011A000FF920F931F93CF93DF938C01EB01893054
:1011B000910508F087C06930710508F083C0FC0113
:1011C000A3E0EE0FFF1FAA95E1F7E80FF91FE60F66
:1011D000F71FEE0FFF1FED5BFA4F808191810A9799
:1011E0000CF470C0808191816AE070E00E94B916B1
:1011F000099749F500E010E01BC0F701EC0FFD1F57
:10120000EE0FFF1FED5BFA4F808191816AE070E085
:101210000E94B916918380832196C930D10569F760
:101220000F5F1F4F0930110519F421E030E04CC069
:10123000C0E0D0E0780153E0EE0CFF1C5A95E1F7D6
:10124000E00EF11EDACF8081918144974CF08091BD
:101250007C0390917D03019690937D0380937C03A2
:10126000F80143E0EE0FFF1F4A95E1F7E00FF11F91
:10127000EC0FFD1FEE0FFF1FED5BFA4F8081918198
:101280006AE070E00E94B916918380838081918129
:101290006AE070E00E94B916892BA1F4C801019799
:1012A000BE010E94CF08C8010196BE010E94CF086E
:1012B0002197C801BE010E94CF082296C801BE0135
:1012C0000E94CF0820E030E0C901DF91CF911F914B
:1012D0000F91FF90EF9008959C010A970A97B8F13B
:1012E000C90144970A97B0F12430310539F125300E
:1012F000310584F42130310509F1223031051CF427
:10130000232BF9F024C02230310539F12330310587
:10131000F1F420C02730310589F0283031053CF444
:1013200025303105D1F02630310589F413C028303D
:10133000310599F02930310551F406C02FE130E034
:101340000EC02FEF3FED0BC020E030E008C02AE8D0
:1013500032E305C020E038EF02C020E034E0C901EC
:101360000895FC01CB0144970A9710F481E233C041
:101370006530710549F1663071058CF46230710594
:10138000E9F06330710524F46130710541F514C052
:1013900063307105A9F06430710509F513C0673039
:1013A0007105B1F0673071058CF06830710591F00E
:1013B00069307105A1F411C081E30DC082E30BC057
:1013C00083E309C084E307C085E305C086E303C067
:1013D00087E301C088E3808308958AE280830895CB
:1013E0000F931F93CF93DF93C0E0D0E023C0F801A9
:1013F000E20FF31FEE0FFF1FED5BFA4F808191812B
:101400000A9764F080819181449744F480819181AE
:101410006AE070E00E94B9160997B9F42F5F3F4F58
:101420002930310521F72196C930D10519F421E081
:1014300030E00DC020E030E08E01B3E0000F111F5E
:10144000BA95E1F70C0F1D1FD2CF20E030E0C901A3
:10145000DF91CF911F910F9108950F931F938C01EE
:101460009093AE048093AD048FEF9FEF9093BA04F6
:101470008093B90480917E0390917F03BC0143E087
:10148000660F771F4A95E1F7680F791F6F5F7F4FEF
:101490008CE291E04BE050E00E94EA04013011053B
:1014A00089F480917E0390917F03BC0133E0660F45
:1014B000771F3A95E1F7680F791F6F5F7F4F8BE3D6
:1014C00091E010C080917E0390917F03BC0123E0E6
:1014D000660F771F2A95E1F7680F791F6F5F7F4FBF
:1014E00085E491E04BE050E00E94EA041F910F91E7
:1014F00008950F931F9380917E0390917F030CE2D8
:1015000011E0BC01F3E0660F771FFA95E1F7680F71
:10151000791F6F5F7F4FC80141E050E00E94EA04ED
:1015200080917E0390917F03BC01E3E0660F771FFB
:10153000EA95E1F7680F791F6F5F7F4FC8014BE0B5
:1015400050E00E94EA0480917E0390917F03BC01E9
:1015500053E0660F771F5A95E1F7680F791F6F5FA9
:101560007F4FC80145E150E00E94EA041F910F91AE
:1015700008950F931F930E947F068091B1008160B0
:101580008093B1001092BC041092BB0480EE9FEFD8
:101590009093BA048093B90481E591E060E070E033
:1015A00041E050E00E94EA040FEF1FEF1093BA04ED
:1015B0000093B90483E691E060E070E045E150E01B
:1015C0000E94EA0489E991E060E070E04FE150E0B8
:1015D0000E94EA048FEC91E060E070E049E250E0A4
:1015E0000E94EA0481E092E060E070E043E350E0B2
:1015F0000E94EA0480E098EF9093BA048093B904C3
:101600008CE092E060E070E047E450E00E94EA0481
:101610001093BA040093B90485E192E060E070E0B1
:101620004BE550E00E94EA0487E492E060E070E05D
:1016300045E650E00E94EA0483E792E060E070E053
:101640004FE650E00E94EA0485EA92E060E070E034
:1016500049E750E00E94EA0485EB92E060E070E028
:1016600043E850E00E94EA0486EE92E060E070E019
:101670004DE850E00E94EA048FEF97E09093BA049F
:101680008093B90485E193E060E070E04BEA50E0BC
:101690000E94EA041093BA040093B90489EA9FE017
:1016A00044E650E060E070E021E030E00E946F0727
:1016B0007894FFCF0F931F93DF93CF93CDB7DEB70F
:1016C0006E970FB6F894DEBF0FBECDBF8FEF9FEFC2
:1016D0009093BA048093B90480917E0390917F0324
:1016E000BC01B3E0660F771FBA95E1F7680F791F69
:1016F0006F5F7F4F8CE291E041E050E00E94EA048E
:1017000020917C0330917D0300D000D000D0EDB754
:10171000FEB731968E010F5F1F4FADB7BEB7129661
:101720001C930E9311978FE393E093838283358309
:1017300024830E94821780917E0390917F032DB7AE
:101740003EB72A5F3F4F0FB6F8943EBF0FBE2DBF86
:10175000BC01A3E0660F771FAA95E1F7680F791F18
:101760006F5F7F4FC80141E050E00E94EA046E962F
:101770000FB6F894DEBF0FBECDBFCF91DF911F91A2
:101780000F9108958091A5049091A6042091A7043B
:101790003091A804FC01A3E0EE0FFF1FAA95E1F72A
:1017A000E80FF91FE20FF31FEE0FFF1FED5BFA4F7B
:1017B000808191810A970CF4ACC08091A50490912E
:1017C000A6042091A7043091A804FC0163E0EE0F69
:1017D000FF1F6A95E1F7E80FF91FE20FF31FEE0F05
:1017E000FF1FED5BFA4F8081918144970CF445C057
:1017F0008091A5049091A6042091A7043091A8049B
:10180000FC0143E0EE0FFF1F4A95E1F7E80FF91FD7
:10181000E20FF31FEE0FFF1FED5BFA4F8081918106
:101820006AE070E00E94B916918380838091A504DC
:101830009091A6042091A7043091A804FC01A3E094
:10184000EE0FFF1FAA95E1F7E80FF91FE20FF31F54
:10185000EE0FFF1FED5BFA4F808191810A96918315
:10186000808380917C0390917D03019690937D030A
:1018700080937C030E945A0B089580917C03909181
:101880007D03181619060CF044C08091A5049091B0
:10189000A6042091A7043091A804FC0163E0EE0F98
:1018A000FF1F6A95E1F7E80FF91FE20FF31FEE0F34
:1018B000FF1FED5BFA4F808191816AE070E00E942A
:1018C000B916918380838091A5049091A6042091FC
:1018D000A7043091A804FC0143E0EE0FFF1F4A95D6
:1018E000E1F7E80FF91FE20FF31FEE0FFF1FED5BAB
:1018F000FA4F8081918144969183808380917C030B
:1019000090917D03019790937D0380937C030E94C7
:101910005A0B08954F925F926F927F928F929F928F
:10192000AF92BF92CF92DF92EF92FF920F931F93ED
:10193000DF93CF93CDB7DEB72A970FB6F894DEBF0B
:101940000FBECDBF8C017B01FC0193E0EE0FFF1FAA
:101950009A95E1F7E00FF11FE60FF71FEE0FFF1F5B
:10196000ED5BFA4F8080918080914E0390914F0300
:101970009A83898380917E0390917F03689F2001E1
:10198000699F500C789F500C11240894411C511CE5
:1019900080917E0390917F03A0907E03B0907F039F
:1019A0000894A108B1089C01629FC001639F900D3B
:1019B000729F900D1124A80EB91E80917E03909104
:1019C0007F03089F3001099F700C189F700C112431
:1019D0000894611C711C80917E0390917F03C090DC
:1019E0007E03D0907F030894C108D1089C01029F18
:1019F000C001039F900D129F900D1124C80ED91E97
:101A00005C824B82BE82AD8278866F82DA86C9861E
:101A10008091A9049091AA049E012F5F3F4F0197E6
:101A200041F4C4016AE070E00E94B916BC01C9012A
:101A300002C0C901B4010E94B1098091A50490912E
:101A4000A6040817190729F58091A7049091A80406
:101A5000E816F906F1F48091AD049091AE04892B5B
:101A600059F42B813C814D815E816F817885898518
:101A70009A850FEF1FEF0AC02B813C814D815E815B
:101A80006F81788589859A8500E018EF0E941002A1
:101A900042C03AE0831691041CF08AE090E002C054
:101AA00080E090E00E946C097C012B813C814D819B
:101AB0005E816F81788589859A8587010E941002F1
:101AC000F092BC04E092BB048091A9049091AA0416
:101AD000019761F4C4016AE070E00E94B9160997A9
:101AE00029F41092BA041092B90407C0C4010E94EC
:101AF0006C099093BA048093B904A40CB51CB694F5
:101B0000A794C60CD71CD694C794CE010196B501F4
:101B1000A6010E94EA041092BC041092BB042A960B
:101B20000FB6F894DEBF0FBECDBFCF91DF911F91EE
:101B30000F91FF90EF90DF90CF90BF90AF909F906C
:101B40008F907F906F905F904F9008950F931F93A9
:101B5000CF93DF9300E010E00DC0C801BE010E94EA
:101B60008A0C2196C930D105C1F70F5F1F4F09308C
:101B7000110519F0C0E0D0E0F0CFDF91CF911F91B7
:101B80000F910895CF93DF9380917A0390917B0317
:101B9000892BC9F00E94790A8FEF9FEF9093BA04C6
:101BA0008093B90480917E0390917F03BC0153E040
:101BB000660F771F5A95E1F7680F791F6F5F7F4FA8
:101BC00080E593E029C00E94F009EC018130910585
:101BD00009F04EC00E94790AD093AA04C093A904C8
:101BE000D0937B03C0937A030E94A60D8FEF9FEFE3
:101BF0009093BA048093B90480917E0390917F03FF
:101C0000BC0143E0660F771F4A95E1F7680F791F23
:101C10006F5F7F4F80E793E041E050E00E94EA046D
:101C200080917E0390917F03BC0133E0660F771FA4
:101C30003A95E1F7680F791F6F5F7F4F8BE593E06F
:101C40004BE050E00E94EA0480917E0390917F0374
:101C5000BC0123E0660F771F2A95E1F7680F791F13
:101C60006F5F7F4F8AE693E045E150E00E94EA040F
:101C7000DF91CF9108956F927F928F929F92AF9252
:101C8000BF92CF92DF92EF92FF920F931F93CF9369
:101C9000DF9388249924E3E16E2E712C0E94721741
:101CA00069E070E00E94B9165C010E94721769E059
:101CB00070E00E94B916EC01F50173E0EE0FFF1F12
:101CC0007A95E1F7EA0DFB1DE80FF91FEE0FFF1FF4
:101CD000ED5BFA4F808191816AE070E00E94B91655
:101CE000099781F1718260828501015010406E0177
:101CF0000894C108D108C801B6010E94AD08C80106
:101D0000BE010E94AD087E010894E11CF11CC801CF
:101D1000B7010E94AD0885010F5F1F4FC801B601D2
:101D20000E94AD08C801BE010E94AD08C801B701FC
:101D30000E94AD08C501B6010E94AD08C501B701FA
:101D40000E94AD080894811C911C8AE088169104B9
:101D500009F0A4CFDF91CF911F910F91FF90EF90E9
:101D6000DF90CF90BF90AF909F908F907F906F90BB
:101D700008950E9412030E948A080E943B0E10924E
:101D80007B0310927A031092AA041092A9048AE0AD
:101D900090E090937D0380937C030E94A60D0E94A7
:101DA0005A0B80E090E00E942D0A08959C018091DA
:101DB000AB049091AC04892B81F42430310509F0F7
:101DC000C7C08091B20090E00E94771781E090E058
:101DD0009093AC048093AB049EC022303105D9F1BE
:101DE0002330310544F42115310591F021303105BE
:101DF00009F0AEC01FC02430310509F46BC0243097
:101E000031050CF442C02530310509F0A1C089C06C
:101E10008091A5049091A604892B09F499C0809122
:101E2000A5049091A6042091A5043091A604215008
:101E3000304022C08091A7049091A804089708F030
:101E400087C06091A7047091A8048091A704909125
:101E5000A80401962AC08091A5049091A604089731
:101E600008F076C08091A5049091A6042091A50465
:101E70003091A6042F5F3F4F3093A6042093A50412
:101E80006091A7047091A80418C08091A704909154
:101E9000A804892B09F45CC06091A7047091A80480
:101EA0008091A7049091A80401979093A80480932F
:101EB000A7048091A5049091A6040E948A0C8091A9
:101EC000A5049091A6046091A7047091A8040E94B3
:101ED0008A0C08958091AD049091AE04892BF1F4A1
:101EE00080917A0390917B03892BA9F48091A504BA
:101EF0009091A6046091A7047091A8040E94CF0855
:101F000090937B0380937A030E945A0B0E94A60D44
:101F10000E94C20D08950E94B90E08950E94C20B3E
:101F200008958091AD049091AE04892B19F481E05D
:101F300090E002C080E090E00E942D0A8091A5040C
:101F40009091A6046091A7047091A8040E94A60D28
:101F50000895CF93DF9384E00E942508882321F021
:101F600080E090E00E94D60E88E00E942508882339
:101F700021F081E090E00E94D60E80E10E942508C9
:101F8000882321F082E090E00E94D60E80E20E9439
:101F90002508882321F083E090E00E94D60E80E897
:101FA0000E942508882321F084E090E00E94D60E4C
:101FB000C0E0D0E00E94D507882331F085E090E0B2
:101FC0000E94D60ECAE0D0E02196CA30D10594F323
:101FD00080E090E0DF91CF910895EF92FF920F9310
:101FE0001F937B018C0120E030E040E05FE40E9421
:101FF000691388238CF0C801B70120E030E040E08D
:102000005FE40E9465110E94F7139B01AC01205010
:1020100030404040504806C0C801B7010E94F71345
:102020009B01AC01B901CA011F910F91FF90EF9084
:102030000895A0E0B0E0EFE1F0E10C94E016DC01DF
:102040002B01FA019C91923008F439C1EB0188818F
:10205000823008F433C1943069F4843009F02FC120
:1020600011969C9111978981981709F428C1A0E8CD
:10207000B3E025C1843009F421C18230A9F4923043
:1020800009F01DC19A01AD0188E0EA010990AE0195
:10209000E90109929E018150C1F7E20189811196FF
:1020A0009C918923818308C1923009F407C112965B
:1020B0002D903C901397EB018A819B811496AD90F3
:1020C000BD90CD90DC901797EC80FD800E811F8134
:1020D0009101281B390BB90137FF04C06627772708
:1020E000621B730B603271050CF061C0121613068F
:1020F0006CF537014801062E04C0969487947794B6
:1021000067940A94D2F721E030E040E050E004C048
:10211000220F331F441F551F6A95D2F721503040BC
:10212000404050402E213F214023512321153105AD
:102130004105510521F021E030E040E050E0790117
:102140008A01E628F728082919293CC0232BD1F158
:10215000260E371E35014601062E04C0969487943C
:10216000779467940A94D2F721E030E040E050E0A1
:1021700004C0220F331F441F551F6A95D2F7215008
:102180003040404050402A213B214C215D21211507
:1021900031054105510521F021E030E040E050E0FB
:1021A00059016A01A628B728C828D9280BC082156A
:1021B00093052CF01C01AA24BB24650103C0EE2466
:1021C000FF24870111969C91D20111968C9198174A
:1021D00009F445C0992339F0A80197012A193B0950
:1021E0004C095D0906C0A60195012E193F09400B57
:1021F000510B57FD08C0118233822282248335831C
:10220000468357831DC081E08183338222828827E1
:102210009927DC01821B930BA40BB50B8483958358
:10222000A683B7830DC0220F331F441F551F24837D
:102230003583468357838281938101979383828379
:102240002481358146815781DA01C9010197A109AD
:10225000B1098F5F9F4FAF4FBF4328F30BC09183EE
:1022600033822282EA0CFB1C0C1D1D1DE482F582C8
:102270000683178383E080832481358146815781DB
:1022800057FF1AC0C901AA2797FDA095BA2F8170E0
:102290009070A070B0705695479537952795822B12
:1022A000932BA42BB52B84839583A683B78382813C
:1022B0009381019693838283DF0101C0D201CD0116
:1022C000CDB7DEB7E2E10C94FC16A0E2B0E0EBE69D
:1022D000F1E10C94EC1669837A838B839C832D83C4
:1022E0003E834F835887E9E0EE2EF12CEC0EFD1E65
:1022F000CE010196B7010E94E8158E010F5E1F4FB7
:10230000CE010596B8010E94E8158A8991E08927D7
:102310008A8BC701B801AE01475E5F4F0E9419105A
:102320000E941315A096E6E00C940817A0E2B0E016
:10233000ECE9F1E10C94EC1669837A838B839C833E
:102340002D833E834F835887F9E0EF2EF12CEC0E5E
:10235000FD1ECE010196B7010E94E8158E010F5EA9
:102360001F4FCE010596B8010E94E815C701B801BC
:10237000AE01475E5F4F0E9419100E941315A09690
:10238000E6E00C940817A0E2B0E0E9ECF1E10C946F
:10239000E01669837A838B839C832D833E834F83EE
:1023A0005887CE010196BE01675F7F4F0E94E815F6
:1023B000CE010596BE016F5E7F4F0E94E81599859C
:1023C000923088F089898230C8F0943019F48230D4
:1023D00051F404C0843029F4923081F480E893E011
:1023E000C6C0923049F420E09A858A89981321E08A
:1023F0002A87CE010996BBC0823049F420E09A8535
:102400008A89981321E02A8BCE014196B0C02D8491
:102410003E844F8458886D887E888F88988CEE24FF
:10242000FF248701AA24BB24650140E050E060E05E
:1024300070E0E0E0F0E0C10181709070892BE9F07C
:10244000E60CF71C081D191D9A01AB012A0D3B1D56
:102450004C1D5D1D80E090E0A0E0B0E0E614F704C4
:102460000805190520F481E090E0A0E0B0E0BA0191
:10247000A901480F591F6A1F7B1FAA0CBB1CCC1C4B
:10248000DD1C97FE08C081E090E0A0E0B0E0A82A43
:10249000B92ACA2ADB2A3196E032F10549F0660CE6
:1024A000771C881C991C5694479437942794C3CF63
:1024B000FA85EA892B893C898B859C85280F391FF1
:1024C0002E5F3F4F17C0CA0181709070892B61F059
:1024D00016950795F794E79480E090E0A0E0B0E8C7
:1024E000E82AF92A0A2B1B2B76956795579547956D
:1024F0002F5F3F4F77FDE7CF0CC0440F551F661F7E
:10250000771F17FD4160EE0CFF1C001F111F2150AB
:102510003040403090E0590790E0690790E4790737
:1025200060F32B8F3C8FDB01CA018F779070A07016
:10253000B07080349105A105B10561F447FD0AC072
:10254000E114F1040105110529F0405C5F4F6F4F64
:102550007F4F40781A8EFE1711F081E08A8F4D8FE1
:102560005E8F6F8F78A383E0898FCE0149960E949A
:102570001315A096E2E10C94FC16A8E1B0E0E3ECA0
:10258000F2E10C94E81669837A838B839C832D8314
:102590003E834F835887B9E0EB2EF12CEC0EFD1EE5
:1025A000CE010196B7010E94E8158E010F5E1F4F04
:1025B000CE010596B8010E94E8152985223008F45D
:1025C0007EC03989323010F4B8017CC08A859A897E
:1025D00089278A87243011F0223031F4231709F03B
:1025E0006EC060E873E06EC0343039F41D861E861C
:1025F0001F86188A1C861B8604C0323021F484E0B2
:102600008987B7015FC02B853C858B899C89281BF6
:10261000390B3C872B87ED84FE840F851889AD88A4
:10262000BE88CF88D88CEA14FB040C051D0540F445
:10263000EE0CFF1C001F111F215030403C872B87E0
:1026400020E030E040E050E080E090E0A0E0B0E446
:1026500060E070E0EA14FB040C051D0540F0282B37
:10266000392B4A2B5B2BEA18FB080C091D09B69580
:10267000A79597958795EE0CFF1C001F111F6F5FA4
:102680007F4F6F31710531F7DA01C9018F77907093
:10269000A070B07080349105A105B10561F427FDEB
:1026A0000AC0E114F1040105110529F0205C3F4F37
:1026B0004F4F5F4F20782D873E874F87588BBE0145
:1026C000675F7F4FCB010E9413156896EAE00C9478
:1026D0000417A8E1B0E0EFE6F3E10C94EC1669838F
:1026E0007A838B839C832D833E834F83588789E035
:1026F000E82EF12CEC0EFD1ECE010196B7010E94D2
:10270000E8158E010F5E1F4FCE010596B8010E949D
:10271000E8158985823040F08989823028F0C70128
:10272000B8010E94601601C08FEF6896E6E00C9435
:102730000817A8E0B0E0EFE9F3E10C94E9169B017B
:10274000AC0183E08983DA01C9018827B7FD83954D
:102750009927AA27BB27B82E211531054105510518
:1027600019F482E089833AC08823A9F0203080E000
:10277000380780E0480780E8580729F460E070E0F7
:1027800080E09FEC30C0EE24FF248701E21AF30AB8
:10279000040B150B02C079018A018EE1C82ED12CE1
:1027A000DC82CB82ED82FE820F831887C801B701DD
:1027B0000E94C41401971816190684F4082E04C048
:1027C000EE0CFF1C001F111F0A94D2F7ED82FE824F
:1027D0000F831887C81AD90ADC82CB82BA82CE014D
:1027E00001960E9413152896E9E00C940517ACE0B9
:1027F000B0E0EDEFF3E10C94F01669837A838B83FC
:102800009C83CE010196BE016B5F7F4F0E94E8154D
:102810008D81823061F1823050F1843021F48E81DB
:10282000882351F12EC02F81388537FD20C06E815D
:102830002F3131051CF06623F9F023C08EE190E0C2
:10284000821B930B29853A854B855C8504C0569580
:102850004795379527958A95D2F76623B1F050951D
:102860004095309521953F4F4F4F5F4F0EC020E070
:1028700030E040E050E009C02FEF3FEF4FEF5FE75F
:1028800004C020E030E040E050E8B901CA012C96D5
:10289000E2E00C940C17A8E0B0E0E1E5F4E10C9460
:1028A000E8167B018C01611571058105910519F40C
:1028B00082E0898360C083E089838EE1C82ED12CB9
:1028C000DC82CB82ED82FE820F831887C801B701BC
:1028D0000E94C414FC013197F7FF3BC02227332725
:1028E0002E1B3F0B57016801022E04C0D694C794DB
:1028F000B794A7940A94D2F740E050E060E070E00B
:1029000081E090E0A0E0B0E004C0880F991FAA1F0A
:10291000BB1F2A95D2F70197A109B1098E219F21EA
:10292000A023B1230097A105B10521F041E050E0BB
:1029300060E070E04A295B296C297D294D835E8324
:102940006F8378878EE190E08E1B9F0B9C838B8337
:1029500012C0309781F00E2E04C0EE0CFF1C001F39
:10296000111F0A94D2F7ED82FE820F831887CE1AC8
:10297000DF0ADC82CB821A82CE0101960E941315F7
:102980002896EAE00C940417EF92FF920F931F939E
:102990007B018C0180E0E81680E0F80681E0080702
:1029A00080E0180788F48FEFE816F104010511059F
:1029B00031F028F088E090E0A0E0B0E017C080E0BF
:1029C00090E0A0E0B0E012C080E0E81680E0F806F9
:1029D00080E0080781E0180728F088E190E0A0E097
:1029E000B0E004C080E190E0A0E0B0E020E230E0A0
:1029F00040E050E0281B390B4A0B5B0B04C01695D6
:102A00000795F794E7948A95D2F7F701E857FC4FBA
:102A10008081281B310941095109C9011F910F917A
:102A2000FF90EF900895DF92EF92FF920F931F9324
:102A3000FC01E480F58006811781D180808182309D
:102A400048F480E090E0A0E1B0E0E82AF92A0A2BFF
:102A50001B2BA5C0843009F49FC0823021F4EE24E2
:102A6000FF24870105C0E114F1040105110519F4E3
:102A7000E0E0F0E096C0628173819FEF62387907F1
:102A80000CF05BC022E83FEF261B370B2A313105E3
:102A90002CF020E030E040E050E02AC0B801A7016F
:102AA000022E04C076956795579547950A94D2F7FC
:102AB00081E090E0A0E0B0E004C0880F991FAA1F59
:102AC000BB1F2A95D2F70197A109B1098E219F2139
:102AD000A023B1230097A105B10521F081E090E08A
:102AE000A0E0B0E09A01AB01282B392B4A2B5B2BDD
:102AF000DA01C9018F779070A070B07080349105B1
:102B0000A105B10539F427FF09C0205C3F4F4F4FA5
:102B10005F4F04C0215C3F4F4F4F5F4FE0E0F0E05C
:102B20002030A0E03A07A0E04A07A0E45A0710F0DE
:102B3000E1E0F0E079018A0127C06038710564F5B1
:102B4000FB01E158FF4FD801C7018F779070A0704B
:102B5000B07080349105A105B10539F4E7FE0DC0D0
:102B600080E490E0A0E0B0E004C08FE390E0A0E05B
:102B7000B0E0E80EF91E0A1F1B1F17FF05C01695CF
:102B80000795F794E794319687E016950795F794A3
:102B9000E7948A95D1F705C0EE24FF248701EFEF73
:102BA000F0E06E2F679566276795902F9F77D794F3
:102BB000DD24D7948E2F8695492F462B582F5D29DB
:102BC000B701CA011F910F91FF90EF90DF90089518
:102BD000FC01DB01408151812281622F6F7770E01F
:102BE000221F2227221F9381892F880F822B282FB3
:102BF00030E0991F9927991F11969C9311972115E1
:102C00003105A9F5411551056105710511F482E001
:102C100037C082E89FEF13969C938E9312979A0188
:102C2000AB0167E0220F331F441F551F6A95D1F790
:102C300083E08C930DC0220F331F441F551F129643
:102C40008D919C911397019713969C938E93129755
:102C5000203080E0380780E0480780E4580758F3C8
:102C600014962D933D934D935C93179708952F3FA2
:102C7000310579F4411551056105710519F484E0B8
:102C80008C93089564FF03C081E08C9312C01C9262
:102C900010C02F57304013963C932E93129783E029
:102CA0008C9387E0440F551F661F771F8A95D1F7D5
:102CB000706414964D935D936D937C93179708956C
:102CC0001F93DC01FB019C91923008F447C0808186
:102CD000823008F443C0943051F411961C91843032
:102CE00099F58181682F70E0611B71093FC08430C4
:102CF00021F0923031F48230B9F18181882389F159
:102D00002DC011961C9111978230F1F08181181716
:102D1000D9F412962D913C91139782819381821759
:102D2000930794F028173907BCF014968D919D9164
:102D30000D90BC91A02D24813581468157812817A3
:102D400039074A075B0718F4112341F00AC08217BC
:102D50009307A407B50740F4112319F061E070E070
:102D600005C06FEF7FEF02C060E070E0CB011F9104
:102D7000089597FB092E07260AD077FD04D00CD0C2
:102D800006D000201AF4709561957F4F0895F6F7EC
:102D9000909581959F4F0895AA1BBB1B51E107C0D9
:102DA000AA1FBB1FA617B70710F0A61BB70B881FDB
:102DB000991F5A95A9F780959095BC01CD0108956A
:102DC0002F923F924F925F926F927F928F929F923B
:102DD000AF92BF92CF92DF92EF92FF920F931F9329
:102DE000CF93DF93CDB7DEB7CA1BDB0B0FB6F894DA
:102DF000DEBF0FBECDBF09942A88398848885F841A
:102E00006E847D848C849B84AA84B984C884DF808A
:102E1000EE80FD800C811B81AA81B981CE0FD11D6E
:102E20000FB6F894DEBF0FBECDBFED010895AF928F
:102E3000BF92CF92DF92EF92FF920F931F93CF93A7
:102E4000DF93EC01A880B980CA80DB80A114B104B3
:102E5000C104D10441F484E2A82E89EDB82E8BE59B
:102E6000C82E87E0D82EC601B5012DE133EF41E031
:102E700050E00E94781A27EA31E440E050E00E94D6
:102E8000591A7B018C01C601B5012DE133EF41E0F8
:102E900050E00E94781ACA01B9012CEE34EF4FEFCE
:102EA0005FEF0E94591A6E0D7F1D801F911F97FFC3
:102EB00004C06150704080409048688379838A8361
:102EC0009B839B013F77C901DF91CF911F910F91A8
:102ED000FF90EF90DF90CF90BF90AF9008950E9449
:102EE0001717089588E894E00E9417170895A0E046
:102EF000B0E08093880490938904A0938A04B093EF
:102F00008B0408950F931F93DF93CF93CDB7DEB754
:102F10002E970FB6F894DEBF0FBECDBF0D891E8968
:102F200086E08C831A8309838FEF9FE79E838D83CE
:102F30009E01275E3F4FCE0101966F89788DA901D2
:102F40000E94B3172F813885020F131FF8011082DA
:102F50002E960FB6F894DEBF0FBECDBFCF91DF9196
:102F60001F910F9108952F923F924F925F926F920F
:102F70007F928F929F92AF92BF92CF92DF92EF9209
:102F8000FF920F931F93DF93CF93CDB7DEB72B97AD
:102F90000FB6F894DEBF0FBECDBF3C012B015A0126
:102FA000FC0117821682838181FD03C06FEF7FEFE2
:102FB000C6C19AE0892E1E010894211C311CF30120
:102FC0002381F20123FD859123FF81912F01882325
:102FD00009F4B2C1853239F423FD859123FF819133
:102FE0002F01853229F490E0B3010E94CF19E7CF79
:102FF000982FFF24EE249924FFE1FF15D0F09B3297
:1030000069F09C3228F4903259F0933291F40EC05A
:103010009D3249F0903369F441E024C052E0F52A32
:1030200084E0F82A28C098E0F92A25C0E0E1FE2AC9
:1030300022C0F7FC29C0892F80538A3070F4F6FE35
:1030400005C0989C902C1124980E15C0E89CE02C8B
:103050001124E80EF0E2FF2A0EC09E3229F4F6FC9D
:103060006BC140E4F42A07C09C3619F450E8F52AF5
:1030700002C0983649F4F20123FD959123FF919106
:103080002F01992309F0B8CF892F8554833018F088
:103090008052833038F444E050E0A40EB51E5FE364
:1030A00059830FC0933631F0933779F0933509F097
:1030B00056C020C0F5018081898342E050E0A40E13
:1030C000B51E610101E010E012C0F501C080D180A1
:1030D000F6FC03C06FEF7FEF02C0692D70E042E0A5
:1030E00050E0A40EB51EC6010E94C4198C015FE712
:1030F000F52214C0F501C080D180F6FC03C06FEF4B
:103100007FEF02C0692D70E042E050E0A40EB51ED2
:10311000C6010E94B9198C0150E8F52AF3FE07C0D8
:103120001AC080E290E0B3010E94CF19EA948E2D7C
:1031300090E008171907A8F30EC0F601F7FC859177
:10314000F7FE81916F0190E0B3010E94CF19E11069
:10315000EA94015010400115110579F7EAC0943640
:1031600011F0993669F5F7FE08C0F501208131812B
:103170004281538184E090E00AC0F5018081918111
:103180009C01442737FD4095542F82E090E0A80E23
:10319000B91E9FE6F92257FF09C05095409530951A
:1031A00021953F4F4F4F5F4FE0E8FE2ACA01B9011A
:1031B000A1012AE030E00E94FB19D82ED21840C0AD
:1031C000953729F41F2D1F7E2AE030E01DC01F2DEA
:1031D000197F9F3661F0903720F4983509F0ACC024
:1031E0000FC0903739F0983709F0A6C004C028E026
:1031F00030E00AC0106114FD146020E130E004C02A
:1032000014FD166020E132E017FF08C0F50160816F
:1032100071818281938144E050E008C0F501808192
:103220009181BC0180E090E042E050E0A40EB51E28
:10323000A1010E94FB19D82ED2188FE7F82EF12297
:10324000F6FE0BC05EEFF522D91438F4F4FE07C089
:10325000F2FC05C08FEEF82202C01D2D01C0192D11
:10326000F4FE0DC0FE01ED0DF11D8081803319F4D7
:1032700099EEF92208C01F5FF2FE05C003C08F2D32
:10328000867809F01F5F0F2DF3FC14C0F0FE0FC00D
:103290001E1510F09D2C0BC09D2C9E0C911A1E2DFE
:1032A00006C080E290E0B3010E94CF191F5F1E1597
:1032B000C0F304C01E1510F4E11A01C0EE2404FF8F
:1032C0000FC080E390E0B3010E94CF1902FF1DC040
:1032D00001FD03C088E790E00EC088E590E00BC0D8
:1032E000802F867891F001FF02C08BE201C080E25E
:1032F000F7FC8DE290E0B3010E94CF1906C080E395
:1033000090E0B3010E94CF199A94D914C0F3DA94D3
:10331000F101ED0DF11D808190E0B3010E94CF1904
:10332000DD20A9F706C080E290E0B3010E94CF192A
:10333000EA94EE20C1F743CEF30166817781CB0199
:103340002B960FB6F894DEBF0FBECDBFCF91DF91A5
:103350001F910F91FF90EF90DF90CF90BF90AF90B3
:103360009F908F907F906F905F904F903F902F90A5
:103370000895FC010590615070400110D8F78095C8
:1033800090958E0F9F1F0895FC0161507040019031
:103390000110D8F7809590958E0F9F1F08950F9379
:1033A0001F93CF93DF938C01EB018B8181FF1BC0B7
:1033B00082FF0DC02E813F818C819D8128173907A6
:1033C00064F4E881F9810193F983E88306C0E88514
:1033D000F985802F0995892B31F48E819F81019683
:1033E0009F838E8302C00FEF1FEFC801DF91CF9143
:1033F0001F910F910895FA01AA27283051F1203129
:1034000081F1E8946F936E7F6E5F7F4F8F4F9F4F78
:10341000AF4FB1E03ED0B4E03CD0670F781F891FBA
:103420009A1FA11D680F791F8A1F911DA11D6A0F88
:10343000711D811D911DA11D20D009F468943F913B
:103440002AE0269F11243019305D3193DEF6CF013A
:103450000895462F4770405D4193B3E00FD0C9F700
:10346000F6CF462F4F70405D4A3318F0495D31FD6D
:103470004052419302D0A9F7EACFB4E0A6959795C0
:10348000879577956795BA95C9F700976105710596
:1034900008959B01AC010A2E0694579547953795E0
:1034A0002795BA95C9F7620F731F841F951FA01D3A
:1034B0000895629FD001739FF001829FE00DF11D7E
:1034C000649FE00DF11D929FF00D839FF00D749F9E
:1034D000F00D659FF00D9927729FB00DE11DF91F4A
:1034E000639FB00DE11DF91FBD01CF0111240895A7
:1034F00097FB092E05260ED057FD04D014D00AD014
:10350000001C38F450954095309521953F4F4F4F12
:103510005F4F0895F6F790958095709561957F4F70
:103520008F4F9F4F0895A1E21A2EAA1BBB1BFD01CE
:103530000DC0AA1FBB1FEE1FFF1FA217B307E40792
:10354000F50720F0A21BB30BE40BF50B661F771FEA
:10355000881F991F1A9469F76095709580959095CA
:0E3560009B01AC01BD01CF010895F894FFCF8F
:10356E00000000010000000000005B0600000000EB
:10357E00000200000000470600000000FFFF0000F0
:10358E000000000000000000FF00000020202020AE
:10359E002020202020202020202000464C414720A3
:1035AE004D4F44450052455645414C204D4F4445E4
:1035BE000023464F5254554E4120535745455045D2
:1035CE0052230052657665616C20616C6C206F66CB
:1035DE00207468652074696C657320776974686FF0
:1035EE007574206465746F6E6174696E6720616EA8
:1035FE0079206D696E65732E0041206E756D626562
:10360E007265642074696C6520696E6469636174A7
:10361E00657320686F77206D616E79206E656967BE
:10362E0068626F7572696E672074696C657300638A
:10363E006F6E7461696E206D696E65732C2077688C
:10364E006572652061206E65696768626F75726963
:10365E006E672074696C6520696E636C7564657342
:10366E0000646961676F6E616C732E00434F4E5438
:10367E00524F4C5300546F206D6F766520796F75E5
:10368E007220637572736F722C2075736520746867
:10369E006520646972656374696F6E616C20627512
:1036AE0074746F6E732E00546F20756E636F766533
:1036BE007220612074696C652C20707265737320A2
:1036CE007468652063656E74726520627574746FBC
:1036DE006E2E00546F207377697463682062657470
:1036EE007765656E20756E636F76657220616E64A8
:1036FE0020666C6167206D6F64652C207475726E28
:10370E002074686500726F7461727920656E636FE4
:10371E006465722E005768656E20696E20666C6156
:10372E0067206D6F64652C20796F752063616E2044
:10373E00706C61636520666C616773207768657273
:10374E006520796F75007468696E6B20626F6D62AB
:10375E0073206172652C20696E7374656164206FCD
:10376E006620756E636F766572696E672061207470
:10377E00696C652E005072657373207468652063E2
:10378E00656E74726520627574746F6E20746F202E
:10379E00626567696E20706C6179696E672100469B
:1037AE006C616773206C6566743A20256400200096
:1037BE0047414D45204F5645522100507265737357
:1037CE0020746F207374617274006F7665722100BD
:1037DE0047414D4520574F4E210001000A001A0067
:1037EE0000000000000000000001020203030303BA
:1037FE000404040404040404050505050505050573
:10380E000505050505050505060606060606060652
:10381E00060606060606060606060606060606063A
:10382E000606060606060606070707070707070722
:10383E00070707070707070707070707070707070A
:10384E0007070707070707070707070707070707FA
:10385E0007070707070707070707070707070707EA
:10386E0007070707070707070808080808080808D2
:10387E0008080808080808080808080808080808BA
:10388E0008080808080808080808080808080808AA
:10389E00080808080808080808080808080808089A
:1038AE00080808080808080808080808080808088A
:1038BE00080808080808080808080808080808087A
:1038CE00080808080808080808080808080808086A
:1038DE00080808080808080808080808080808085A
:0C38EE000808080808080808010000008D
:00000001FF
